:020000020000FC
:0200000045C0F9
:10008C000FEF0DBF00E10EBF0FEF04BB009507BBD8
:10009C0090E90FE705BB86B38095092705BB813036
:1000AC0029F0823031F0843039F0F5CF0E94000213
:0E00BC00F2CF0E940802EFCF0E941002ECCF9C
:10040000BEE2A0E918EC1A95F1F71197D9F7089513
:10041000B0E0A0EC1FEC1A95F1F71197D9F7089509
:10042000B0E0A0E6302F3095202F70E81EEC7A95D2
:1004300039F0703829F01A95D1F71197B9F7089566
:06044000232725BBF8CFC5
:00000001FF
